:100000000C94EE330C941F340C941F340C941F3456
:100010000C941F340C941F340C941F340C941F3414
:100020000C941F340C94369B0C94369B0C94369B8A
:100030000C941F340C941B9A0C941F340C941F3492
:100040000C941F340C94826D0C941F340C941F3448
:100050000C941F340C941F340D942E850C94F3983B
:100060000C941F340C9494880C941F340C941F34FB
:100070000C941F340C941F340C941F340C941F34B4
:100080000C941F340C941F340C941F340C941F34A4
:100090000C941F340C941F340C941F340C941F3494
:1000A0000C941F340C941F340C941F340C941F3484
:1000B0000C941F340C941F340C941F340C941F3474
:1000C0000C941F340C941F340C941F340C941F3464
:1000D0000C941F340C941F340C941F340C941F3454
:1000E0000C941F3432963596249628962E966C964C
:1000F00039963D96439647964B9651965596599606
:100100006C965F96639667960F9814981998239843
:100110002D98A69837983F98479851985B9865987E
:1001200074987E98A698889892989C98AA01F8014D
:100130009C01BE01720192019801B4014A018E0135
:10014000D001E401E2018C019A019E01C401F40195
:1001500070014601500102027C01B00168013C01BE
:100160008A013C013C0186014E015E01CA01FE018B
:10017000D8016E01A4013E01900158019001B60121
:100180009001B801A8015201EA01EC019401E601D5
:100190008401084AD73B3BCE016E84BCBFFDC12F12
:1001A0003D6C74319ABD56833DDA3D00C77F11BE68
:1001B000D9E4BB4C3E916BAAAABE000000803F056B
:1001C000A84CCDB2D44EB93836A9020C50B991869C
:1001D00088083CA6AAAA2ABE000000803F07634206
:1001E00036B79BD8A71A39685618AEBAAB558C1DCE
:1001F0003CB7CC5763BD6DEDFD753EF6177231BF50
:10020000000000803F08000000BE922449123EAB6F
:10021000AAAA2ABECDCCCC4C3E00000080BEABAA20
:10022000AAAA3E00000000BF000000803F000000BE
:100230000000084178D3BB4387D1133D190E3CC35E
:10024000BD4282AD2B3E68EC8276BED98FE1A93EDD
:100250004C80EFFFBE01C4FF7F3F000000000000A4
:100260000D943D100D9485060D943F2F0D94AD0A0D
:100270000D9415290D94573C0D94C6690D94DA6AB6
:100280000D94B7040D94923D0D94202F0D94F868B1
:100290000D94032B0D94B0110D94D50E0D94606A3E
:1002A0000D9405690D944B6B0D942B0F0D945B0809
:1002B0000D94FD6A0D94370C0D94350E0D94636A00
:1002C0000D94A73A0D9479000D94720B0D94D52CD2
:1002D0000D9439690D9476000D947F3C0D94A56AB8
:1002E0000D94E7680D94AA110D94B9040D94042798
:1002F0000D94EB2A0D941F2F0D941F690D94B33E9E
:100300000D9423090D94D4270D94C66B0D945C694C
:100310000D94482B0D9446690D94A6500D94B3117D
:100320000D94E46B0D94B6110D94876B0D94E32A34
:100330000D94AD110D94F8510D94C0110D9403520C
:100340000D94593C0D940D2B0D94C36A0D94E72A1E
:100350000D941D6B0D94BD110D94913B0D94BF0F29
:100360000D942C690D946C3C0D94BB110D94136B82
:100370000D94176B0D94082B0D94D12C0D94A7118F
:100380000D94FB010D94C6260D9413520D94871005
:100390000D94D92C0D94896A0D947F000D94CA3A5E
:1003A0000D94B74D0D94EAA30D94E8020D946840A6
:1003B0000D94956A0D94E8090D94543C0D94DF2A30
:1003C0000D94CD2C0D94E44E0D94F34D0D94A56B2E
:1003D0000D94B5040D94686B0D947D6B0D94CE3A1D
:1003E0000D94750F0D947C000D94E4680D948B0EA4
:1003F0000D94A4110D94E5260D94BD0D0D948F6AF6
:100400000D94FC0C0D9412690D948E3D0D9465A114
:100410000D94F30F4E414E494E495459494E46CD25
:10042000CCCC3D0AD7233C17B7D13877CC2B3295AB
:1004300095E6241FB14F0A000020410000C8420089
:10044000401C4620BCBE4CCA1B0E5AAEC59D740053
:10045000407A10F35A00A0724E18090010A5D4E893
:100460000000E87648170000E40B54020000CA9A26
:100470003B000000E1F50500008096980000004078
:10048000420F000000A086010000001027000000BD
:1004900000E803000000006400000000000A000003
:1004A0000000000100000000002C76D888DC674FB7
:1004B0000823DFC1DFAE59E1B1B796E5E3E453C6E7
:1004C0003AE651997696E8E6C28426EB898C9B62DF
:1004D000ED407C6FFCEFBC9C9F40F2BAA56FA5F489
:1004E00090055A2AF75C936B6CF9676DC11BFCE0B1
:1004F000E40D47FEF520E6B500D0ED902E03009404
:100500003577050080841E080000204E0A00000098
:10051000C80C333333330F986E12831141EF8D21A2
:1005200014893BE65516CFFEE6DB18D1844B381B09
:10053000F77C1D901DA4BBE424203284725E2281CE
:1005400000C9F124ECA1E53D27434F4D4D554E49DF
:10055000434154494F4E0044525952554E00455262
:10056000524F525300494E464F004543484F0047B3
:10057000322F47332062616420706172616D65744F
:100580006572730A00536C6565702E2E2E00205A1A
:100590003A200020593A200042656420583A200051
:1005A0004D65736820706F696E742063616E6E6F45
:1005B00074206265207265736F6C7665640A00430F
:1005C0006C69636B20746F20726573756D652E2E78
:1005D0002E004E6F206D6F76652E00456E6420668E
:1005E000696C65206C6973740A00426567696E20E6
:1005F00066696C65206C6973740A004D3132350090
:10060000286E6F2066696C652900534420707269FA
:100610006E74696E67206279746520004E6F742075
:100620005344207072696E74696E670A0043757274
:1006300072656E742066696C653A20005072696E4E
:10064000742074696D653A20006F6E2E0A006F6623
:10065000662E0A0047323620446562756720006ABC
:100660000565055E05570549056F66660044454208
:1006700055473A004B494C4C45442E20004D3131F2
:10068000332053006F6B0050533A310A0050533AF5
:10069000300A004F766572636C6F6E6520333535B6
:1006A0002D3131392D313930343238204F66662EB4
:1006B000002C20002C2000544845524D414C5F50E6
:1006C000524F54454354494F4E004155544F5245A3
:1006D000504F52545F53445F535441545553004557
:1006E0004D455247454E43595F5041525345520084
:1006F000434153455F4C494748545F42524947483C
:10070000544E45535300544F47474C455F4C49475F
:1007100048545300534F4654574152455F504F572A
:100720004552004255494C445F50455243454E5452
:10073000004C4556454C494E475F44415441005A90
:100740005F50524F4245004155544F4C4556454C21
:10075000005052494E545F4A4F420050524F475248
:10076000455353004155544F5245504F52545F54D6
:10077000454D5000564F4C554D4554524943004548
:100780004550524F4D0053455249414C5F584F4ED2
:100790005F584F4646004649524D574152455F4EBD
:1007A000414D453A4D61726C696E206275676669AC
:1007B000782D312E312E782028476974687562298A
:1007C00020534F555243455F434F44455F55524C6C
:1007D0003A68747470733A2F2F6769746875622E63
:1007E000636F6D2F4D61726C696E4669726D7761D2
:1007F00072652F4D61726C696E2050524F544F4399
:100800004F4C5F56455253494F4E3A312E30204D92
:10081000414348494E455F545950453A4F766572B9
:10082000636C6F6E65203335352D3131392D31399B
:10083000303432382045585452554445525F434F66
:10084000554E543A3120555549443A656336653220
:100850006130352D353134632D343732392D6136E1
:1008600030342D3966363565383934353763350AD5
:10087000002F2F20004D31343520533C696E6465C4
:10088000783E206F7574206F662072616E676520F8
:1008900028302D31290A0020540020520041636382
:1008A000656C65726174696F6E3A2050003F4A2032
:1008B0006F7574206F662072616E67652028302E18
:1008C000303120746F20302E33290A0020466C6F9F
:1008D000773A2000000136372603FFFFFFFF3C3D3B
:1008E000380EFFFFFFFF2E303E12FFFFFFFFFFFF1E
:1008F0000C0809FFFFFF1A1C18FFFFFF08440AFF3E
:100900004324221EFF50726F6265205A204F666694
:100910007365743A200043290A0061626C656420A3
:10092000286D696E2074656D702000436F6C6420C3
:100930006578747275646573206172652000206447
:100940003A0020693A0020703A004E6F20636173CC
:1009500065206C696768740A00454550524F4D2008
:100960004F4B0A003F5A206F7574206F66207261EA
:100970006E676520282D323020746F203230290AAE
:10098000003A200050726F6265205A204F666673ED
:100990006574002064726976657220637572726591
:1009A0006E743A20004163746976652045787472EC
:1009B000756465723A2000496E76616C69642065E1
:1009C000787472756465720A000000211042206319
:1009D000308440A550C660E770088129914AA16B18
:1009E000B18CC1ADD1CEE1EFF131121002733252B0
:1009F00022B5529442F772D662399318837BB35A68
:100A0000A3BDD39CC3FFF3DEE3622443342004017F
:100A100014E664C774A44485546AA54BB5288509B7
:100A200095EEE5CFF5ACC58DD5533672261116304F
:100A300006D776F6669556B4465BB77AA719973807
:100A400087DFF7FEE79DD7BCC7C448E5588668A78F
:100A5000784008611802282338CCC9EDD98EE9AF57
:100A6000F9488969990AA92BB9F55AD44AB77A96EF
:100A70006A711A500A333A122AFDDBDCCBBFFB9EA7
:100A8000EB799B588B3BBB1AABA66C877CE44CC5BF
:100A90005C222C033C600C411CAEED8FFDECCDCDF7
:100AA000DD2AAD0BBD688D499D977EB66ED55EF48F
:100AB0004E133E322E511E700E9FFFBEEFDDDFFC47
:100AC000CF1BBF3AAF599F788F8891A981CAB1EBEC
:100AD000A10CD12DC14EF16FE18010A100C230E315
:100AE000200450254046706760B9839893FBA3DAD1
:100AF000B33DC31CD37FE35EF3B1029012F322D265
:100B0000323542145277625672EAB5CBA5A8958960
:100B1000856EF54FE52CD50DC5E234C324A01481B4
:100B2000046674476424540544DBA7FAB79987B870
:100B3000975FE77EF71DC73CD7D326F2369106B004
:100B40001657667676154634564CD96DC90EF92F70
:100B5000E9C899E9898AB9ABA94458654806782754
:100B600068C018E1088238A3287DCB5CDB3FEB1E10
:100B7000FBF98BD89BBBAB9ABB754A545A376A16A4
:100B80007AF10AD01AB32A923A2EFD0FED6CDD4DA0
:100B9000CDAABD8BADE89DC98D267C076C645C45F4
:100BA0004CA23C832CE01CC10C1FEF3EFF5DCF7CB0
:100BB000DF9BAFBABFD98FF89F176E367E554E7444
:100BC0005E932EB23ED10EF01E7C3C3E5E2B3D3F2E
:100BD0002F5B5D3B2C2A225C004572726F7220777E
:100BE000726974696E6720746F20454550524F4D8D
:100BF000210A0000000001000000010000800055F3
:100C00005555000000400033333300AAAA2A00499A
:100C100092240000002000C7711C0099991900D18E
:100C2000451700555515003BB1130024491200111A
:100C3000111100000010000F0F0F00E3380E0043E9
:100C4000790D00CCCC0C00C3300C00E8A20B006482
:100C5000210B00AAAA0A00703D0A009DD809004293
:100C60007B090092240900DCD30800888808001062
:100C700042080000000800F0C107008787070075E0
:100C8000500700711C07003EEB0600A1BC0600697E
:100C900090060066660600703E06006118060017A2
:100CA000F4050074D105005BB00500B29005006248
:100CB0007205005555050078390500B81E05000578
:100CC0000505004EEC040087D40400A1BD0400908B
:100CD000A7040049920400C17D0400EE690400C726
:100CE000560400444404005C32040008210400411E
:100CF000100400000004003FF00300F8E0030026A9
:100D0000D20300C3C30300CCB503003AA803000A12
:100D10009B0300388E0300C08103009F750300D041
:100D2000690300505E03001D530300344803009123
:100D30003D03003333030016290300381F030097D7
:100D4000150300300C0300030303000BFA020049F3
:100D5000F10200BAE802005CE002002DD802002D8A
:100D6000D0020059C80200B0C0020031B90200DA56
:100D7000B10200AAAA0200A0A30200BC9C0200FAD1
:100D80009502005C8F0200DF88020082820200452B
:100D90007C02002776020027700200436A02007C72
:100DA000640200D05E02003F590200C853020020D6
:100DB000746F6F206C6F6E672065787472757369DD
:100DC0006F6E2070726576656E7465640A002063CC
:100DD0006F6C6420657874727573696F6E207072C1
:100DE0006576656E7465640A0024F4D43050C38E51
:100DF00020C2A24017828B7011127A910D816CD99A
:100E00000AA861E108C7586607615143061E4B5D99
:100E100005C145A7041A411104093D9803713931F0
:100E2000034036DB0265339102D4305402802E1D1C
:100E300002632CEE01752AC501B028A0011027819C
:100E4000018F2564012B244B01E0223401AC211FCA
:100E5000018D200D01801FFC00841EED00971DDF19
:100E600000B81CD200E61BC600201BBC00641AB2EE
:100E700000B219A8000A19A0006A189900D11791A8
:100E80000040178B00B516840031167E00B315792B
:100E9000003A157300C7146F0058146A00EE136609
:100EA000008813630025135E00C7125B006C1257A5
:100EB0000015125400C111510070114F0021114B47
:100EC00000D61049008D1047004610440002104221
:100ED00000C00F4000800F3E00420F3C00060F3B59
:100EE00000CB0E3800930E37005C0E3500270E3411
:100EF00000F30D3200C10D3100900D3000600D2E59
:100F000000320D2D00050D2C00D90C2B00AE0C2944
:100F100000850C29005C0C2700350C27000E0C26E0
:100F200000E80B2400C40B2400A00B23007D0B233E
:100F3000005A0B2100390B2100180B2000F80A1F62
:100F400000D90A1E00BB0A1E009D0A1D00800A1D52
:100F500000630A1C00470A1B002C0A1B00110A1A16
:100F600000F7091A00DD091900C4091900AB0919B5
:100F700000920917007B091800630917004C091635
:100F80000036091600200916000A091500F5081593
:100F900000E0081400CC081400B8081400A40814D9
:100FA00000900813007D0812006B08130058081207
:100FB000004608120034081100230811001208111D
:100FC0000001081100F0071000E0071000D0071022
:100FD00000C0071000B0070F00A107100091070E16
:100FE0000083070F0074070F0065070E0057070EF8
:100FF0000049070E003B070D002E070E0020070DCD
:101000000013070D0006070D00F9060C00ED060D94
:1010100000E0060C00D4060C00C8060C00BC060C50
:1010200000B0060C00A4060B0099060C008D060B00
:101030000082060B0077060B006C060B0061060AA7
:101040000057060B004C060A0042060A0038060A42
:10105000002E060A0024060A001A060A00100609D5
:101060000007060A00FD050900F4050900EB050963
:1010700000E2050900D9050900D0050900C70509E6
:1010800000BE050900B5050800AD050800A5050965
:10109000009C050800940508008C050800840508DC
:1010A000007C050800740508006C0507006505084C
:1010B000005D050700560508004E050700470507B7
:1010C000004005080038050700310507002A05071C
:1010D00000230507001C050600160507000F05077D
:1010E000000805060002050700FB040600F50407DA
:1010F00000EE040600E8040600E2040700DB040634
:1011000000D5040600CF040600C9040600C3040687
:1011100000BD040600B7040600B1040500AC0406D7
:1011200000A6040600A00405009B04060095040523
:1011300000900406008A040500850405008004066A
:10114000007A04050075040500700405006B0405B1
:101150000066040500610405005C040500570405F1
:1011600000520405004D0405004804050043040531
:10117000003E0404003A0405003504050030040470
:10118000002C04050027040400230405001E0404A9
:10119000001A04040016040500110404000D0404E0
:1011A00000090405000404040000040400FC030416
:1011B00000F8030400F4030400F0030400EC03044B
:1011C00000E8030400E4030400E0030400DC03047B
:1011D00000D8030400D4030400D0030400CC0304AB
:1011E00000C8030300C503030024F404D9201BC472
:1011F0000C5C0E9804C4095F0265077101F405F9DF
:1012000000FB04B30048048700C10369005803557C
:101210000003034500BE023A008402310053022A53
:10122000002902250004022000E4011C00C8011965
:1012300000AF011700980114008401130071011020
:10124000006101100051010E0043010D0036010B39
:10125000002B010B0020010B00150109000C0109F6
:101260000003010800FB000800F3000800EB000782
:1012700000E4000600DE000600D8000600D20006EA
:1012800000CC000500C7000500C2000500BD000439
:1012900000B9000400B5000400B1000400AD000472
:1012A00000A9000400A5000300A20003009F0004A1
:1012B000009B0003009800030095000200930003C8
:1012C00000900003008D0002008B000300880002E4
:1012D000008600020084000300810002007F0002FB
:1012E000007D0002007B000200790002007700010F
:1012F000007600020074000200720001007100021A
:10130000006F0002006D0001006C0002006A000125
:10131000006900020067000100660001006500012D
:101320000064000200620001006100010060000131
:10133000005F0002005D0001005C0001005B000135
:10134000005A000100590001005800010057000137
:101350000056000100550001005400010053000038
:101360000053000100520001005100010050000133
:10137000004F0001004E0000004E0001004D000132
:10138000004C0001004B0000004B0001004A00012E
:10139000004900010048000000480001004700012A
:1013A0000046000000460001004500000045000125
:1013B000004400010043000000430001004200001F
:1013C0000042000100410000004100010040000116
:1013D000003F0000003F0001003E0000003E000111
:1013E000003D0000003D0001003C0000003C00000A
:1013F000003C0001003B0000003B0001003A0000FF
:10140000003A0001003900000039000100380000F6
:1014100000380000003800010037000000370001EC
:1014200000360000003600000036000100350000E4
:1014300000350000003500010034000000340000D9
:1014400000340001003300000033000000330001CD
:1014500000320000003200000032000100310000C4
:1014600000310000003100010030000000300000B9
:1014700000300001002F0000002F0000002F0000AE
:10148000002F0001002E0000002E0000002E0001A1
:10149000002D0000002D0000002D0000002D000197
:1014A000002C0000002C0000002C0000002C00018B
:1014B000002B0000002B0000002B0000002B00017F
:1014C000002A0000002A0000002A0000002A000173
:1014D0000029000000290000002900000029000068
:1014E000002900010028000000280000002800005A
:1014F000002800000028000100270000002700004D
:10150000002700000027000000270001002600003F
:101510000026000000260000002600000026000132
:101520000025000000250000002500000025000027
:101530000025000000250001002400000024000018
:10154000002400000024000000240001002300000B
:1015500000230000002300000023000000230000FF
:1015600000230000002300010022000000220000F0
:1015700000220000002200000022000000220001E2
:1015800000210000002100000021000000210000D7
:1015900000210000002100000021000100200000C7
:1015A00000200000002000000020000000200000BB
:1015B000002000000020000000200001001F0000AB
:1015C000001F0000001F0000001F0000001F00009F
:1015D000001F0000001F0001001E0000001E000090
:1015E000001E0000001E00000039300000332500FE
:1015F0000087190000B00F0000DB080000BD0400E8
:1016000000740200003F0100004D3630303A205493
:101610006F6F20636F6C6400486F74656E64207434
:101620006F6F20636F6C640A0046696C65206465A7
:101630006C657465643A0044656C6574696F6E200E
:101640006661696C65642C2046696C653A200050BF
:10165000726F7465637465642050696E0A00466930
:101660006C616D656E7420757365643A2000537407
:101670006174733A20002C204C6F6E676573742080
:101680006A6F623A2000546F74616C2074696D65F2
:101690003A200053746174733A20002C204661692B
:1016A0006C65643A20002C2046696E697368656435
:1016B0003A20005072696E74733A2000537461745A
:1016C000733A200020573A004520436F6F6C696ED3
:1016D000672E2E2E00452048656174696E672E2E98
:1016E0002E0020573A0042656420636F6F6C696E6C
:1016F000672E2E2E004265642068656174696E67EE
:101700002E2E2E00205A3A0020593A0020436F75A1
:101710006E7420583A0020453A00205A3A00205969
:101720003A00583A003A004361703A00205A0020CB
:101730005900580020204D61783A2000205A00209E
:101740005900580020204D696E3A20004F6E20004D
:101750004F666600536F667420656E6473746F70B5
:10176000733A200020633A0020643A0020693A006E
:1017700020703A00496E76616C69642065787472F5
:10178000756465720A004B64200023646566696EA7
:10179000652044454641554C545F004B6920002369
:1017A000646566696E652044454641554C545F004A
:1017B0004B70200023646566696E65204445464190
:1017C000554C545F00504944204175746F74756ED8
:1017D000652066696E6973686564212050757420A0
:1017E000746865206C617374204B702C204B6920E9
:1017F000616E64204B6420636F6E7374616E7473EA
:101800002066726F6D2062656C6F7720696E746FF1
:1018100020436F6E66696775726174696F6E2E68BA
:101820000A00504944204175746F74756E652066D6
:1018300061696C6564212074696D656F75740A0057
:10184000453120544845524D414C2052554E415748
:1018500041590042454420544845524D414C205284
:10186000554E4157415900546865726D616C205264
:10187000756E617761790045312048656174696EE4
:1018800067206661696C6564004265642068656113
:1018900074696E67206661696C656400486561748F
:1018A000696E67206661696C656400504944204137
:1018B00075746F74756E65206661696C656421204E
:1018C00054656D706572617475726520746F6F20F8
:1018D000686967680A00204B643A2000204B693A27
:1018E0002000204B703A20000A20436C617373691A
:1018F0006320504944200A002054753A2000204BB0
:10190000753A2000206D61783A2000206D696E3AAA
:10191000200020643A200020626961733A20005060
:101920004944204175746F74756E65206661696CF9
:101930006564212054656D706572617475726520EF
:10194000746F6F20686967680A00504944204175C8
:10195000746F74756E652073746172740A005049F7
:1019600044204175746F74756E65206661696C659D
:101970006421204261642065787472756465722008
:101980006E756D6265720A005072696E74657220C0
:1019900073746F707065642064756520746F206562
:1019A00072726F72732E20466978207468652065A4
:1019B00072726F7220616E6420757365204D3939C3
:1019C0003920746F20726573746172742E202854EC
:1019D000656D7065726174757265206973207265DA
:1019E0007365742E20536574206974206166746574
:1019F000722072657374617274696E67290A00538C
:101A0000544F505045442E200070012C0190012766
:101A100001B0012201C0011D01F0011801100213E3
:101A20000130020E016002090190020401C002FFB0
:101A3000000003FA004003F5008003F000D003EB40
:101A4000002004E6007004E100E004DC004005D75B
:101A500000C005D2004006CD00D006C8008007C3F4
:101A6000003008BE00F008B900C009B400B00AAFE9
:101A700000B00BAA00D00CA500000EA000500F9BD8
:101A800000C01096005012910000148C00C0158701
:101A900000B0178200B0197D00D01B7800001E73C3
:101AA0000040206E0090226900F024640040275F0F
:101AB0000090295A00E02B5500102E500020304B8A
:101AC0000010324600E033410090353C00103737BB
:101AD0000070383200A0392D00B03A2800A03B2316
:101AE00000603C1E00103D1900903D1400103E0F98
:101AF00000703E0A00C03E0500003F0000403FFB72
:101B0000FF803FF6FFC03FF1FF24F404D9201BC43F
:101B10000C5C0E9804C4095F0265077101F405F9B5
:101B200000FB04B30048048700C103690058035553
:101B30000003034500BE023A008402310053022A2A
:101B4000002902250004022000E4011C00C801193C
:101B500000AF0117009801140084011300710110F7
:101B6000006101100051010E0043010D0036010B10
:101B7000002B010B0020010B00150109000C0109CD
:101B80000003010800FB000800F3000800EB000759
:101B900000E4000600DE000600D8000600D20006C1
:101BA00000CC000500C7000500C2000500BD000410
:101BB00000B9000400B5000400B1000400AD000449
:101BC00000A9000400A5000300A20003009F000478
:101BD000009B00030098000300950002009300039F
:101BE00000900003008D0002008B000300880002BB
:101BF000008600020084000300810002007F0002D2
:101C0000007D0002007B00020079000200770001E5
:101C100000760002007400020072000100710002F0
:101C2000006F0002006D0001006C0002006A0001FC
:101C30000069000200670001006600010065000104
:101C40000064000200620001006100010060000108
:101C5000005F0002005D0001005C0001005B00010C
:101C6000005A00010059000100580001005700010E
:101C7000005600010055000100540001005300000F
:101C8000005300010052000100510001005000010A
:101C9000004F0001004E0000004E0001004D000109
:101CA000004C0001004B0000004B0001004A000105
:101CB0000049000100480000004800010047000101
:101CC00000460000004600010045000000450001FC
:101CD00000440001004300000043000100420000F6
:101CE00000420001004100000041000100400001ED
:101CF000003F0000003F0001003E0000003E0001E8
:101D0000003D0000003D0001003C0000003C0000E0
:101D1000003C0001003B0000003B0001003A0000D5
:101D2000003A0001003900000039000100380000CD
:101D300000380000003800010037000000370001C3
:101D400000360000003600000036000100350000BB
:101D500000350000003500010034000000340000B0
:101D600000340001003300000033000000330001A4
:101D7000003200000032000000320001003100009B
:101D80000031000000310001003000000030000090
:101D900000300001002F0000002F0000002F000085
:101DA000002F0001002E0000002E0000002E000178
:101DB000002D0000002D0000002D0000002D00016E
:101DC000002C0000002C0000002C0000002C000162
:101DD000002B0000002B0000002B0000002B000156
:101DE000002A0000002A0000002A0000002A00014A
:101DF000002900000029000000290000002900003F
:101E00000029000100280000002800000028000030
:101E10000028000000280001002700000027000023
:101E20000027000000270000002700010026000016
:101E30000026000000260000002600000026000109
:101E400000250000002500000025000000250000FE
:101E500000250000002500010024000000240000EF
:101E600000240000002400000024000100230000E2
:101E700000230000002300000023000000230000D6
:101E800000230000002300010022000000220000C7
:101E900000220000002200000022000000220001B9
:101EA00000210000002100000021000000210000AE
:101EB000002100000021000000210001002000009E
:101EC0000020000000200000002000000020000092
:101ED000002000000020000000200001001F000082
:101EE000001F0000001F0000001F0000001F000076
:101EF000001F0000001F0001001E0000001E000067
:101F0000001E0000001E00000024F4D43050C38ED8
:101F100020C2A24017828B7011127A910D816CD968
:101F20000AA861E108C7586607615143061E4B5D68
:101F300005C145A7041A411104093D9803713931BF
:101F4000034036DB0265339102D4305402802E1DEB
:101F500002632CEE01752AC501B028A0011027816B
:101F6000018F2564012B244B01E0223401AC211F99
:101F7000018D200D01801FFC00841EED00971DDFE8
:101F800000B81CD200E61BC600201BBC00641AB2BD
:101F900000B219A8000A19A0006A189900D1179177
:101FA0000040178B00B516840031167E00B31579FA
:101FB000003A157300C7146F0058146A00EE1366D8
:101FC000008813630025135E00C7125B006C125774
:101FD0000015125400C111510070114F0021114B16
:101FE00000D61049008D10470046104400021042F0
:101FF00000C00F4000800F3E00420F3C00060F3B28
:1020000000CB0E3800930E37005C0E3500270E34DF
:1020100000F30D3200C10D3100900D3000600D2E27
:1020200000320D2D00050D2C00D90C2B00AE0C2913
:1020300000850C29005C0C2700350C27000E0C26AF
:1020400000E80B2400C40B2400A00B23007D0B230D
:10205000005A0B2100390B2100180B2000F80A1F31
:1020600000D90A1E00BB0A1E009D0A1D00800A1D21
:1020700000630A1C00470A1B002C0A1B00110A1AE5
:1020800000F7091A00DD091900C4091900AB091984
:1020900000920917007B091800630917004C091604
:1020A0000036091600200916000A091500F5081562
:1020B00000E0081400CC081400B8081400A40814A8
:1020C00000900813007D0812006B081300580812D6
:1020D00000460812003408110023081100120811EC
:1020E0000001081100F0071000E0071000D00710F1
:1020F00000C0071000B0070F00A107100091070EE5
:102100000083070F0074070F0065070E0057070EC6
:102110000049070E003B070D002E070E0020070D9B
:102120000013070D0006070D00F9060C00ED060D63
:1021300000E0060C00D4060C00C8060C00BC060C1F
:1021400000B0060C00A4060B0099060C008D060BCF
:102150000082060B0077060B006C060B0061060A76
:102160000057060B004C060A0042060A0038060A11
:10217000002E060A0024060A001A060A00100609A4
:102180000007060A00FD050900F4050900EB050932
:1021900000E2050900D9050900D0050900C70509B5
:1021A00000BE050900B5050800AD050800A5050934
:1021B000009C050800940508008C050800840508AB
:1021C000007C050800740508006C0507006505081B
:1021D000005D050700560508004E05070047050786
:1021E000004005080038050700310507002A0507EB
:1021F00000230507001C050600160507000F05074C
:10220000000805060002050700FB040600F50407A8
:1022100000EE040600E8040600E2040700DB040602
:1022200000D5040600CF040600C9040600C3040656
:1022300000BD040600B7040600B1040500AC0406A6
:1022400000A6040600A00405009B040600950405F2
:1022500000900406008A0405008504050080040639
:10226000007A04050075040500700405006B040580
:102270000066040500610405005C040500570405C0
:1022800000520405004D0405004804050043040500
:10229000003E0404003A040500350405003004043F
:1022A000002C04050027040400230405001E040478
:1022B000001A04040016040500110404000D0404AF
:1022C00000090405000404040000040400FC0304E5
:1022D00000F8030400F4030400F0030400EC03041A
:1022E00000E8030400E4030400E0030400DC03044A
:1022F00000D8030400D4030400D0030400CC03047A
:1023000000C8030300C503030024F404D9201BC440
:102310000C5C0E9804C4095F0265077101F405F9AD
:1023200000FB04B30048048700C10369005803554B
:102330000003034500BE023A008402310053022A22
:10234000002902250004022000E4011C00C8011934
:1023500000AF0117009801140084011300710110EF
:10236000006101100051010E0043010D0036010B08
:10237000002B010B0020010B00150109000C0109C5
:102380000003010800FB000800F3000800EB000751
:1023900000E4000600DE000600D8000600D20006B9
:1023A00000CC000500C7000500C2000500BD000408
:1023B00000B9000400B5000400B1000400AD000441
:1023C00000A9000400A5000300A20003009F000470
:1023D000009B000300980003009500020093000397
:1023E00000900003008D0002008B000300880002B3
:1023F000008600020084000300810002007F0002CA
:10240000007D0002007B00020079000200770001DD
:1024100000760002007400020072000100710002E8
:10242000006F0002006D0001006C0002006A0001F4
:1024300000690002006700010066000100650001FC
:102440000064000200620001006100010060000100
:10245000005F0002005D0001005C0001005B000104
:10246000005A000100590001005800010057000106
:102470000056000100550001005400010053000007
:102480000053000100520001005100010050000102
:10249000004F0001004E0000004E0001004D000101
:1024A000004C0001004B0000004B0001004A0001FD
:1024B00000490001004800000048000100470001F9
:1024C00000460000004600010045000000450001F4
:1024D00000440001004300000043000100420000EE
:1024E00000420001004100000041000100400001E5
:1024F000003F0000003F0001003E0000003E0001E0
:10250000003D0000003D0001003C0000003C0000D8
:10251000003C0001003B0000003B0001003A0000CD
:10252000003A0001003900000039000100380000C5
:1025300000380000003800010037000000370001BB
:1025400000360000003600000036000100350000B3
:1025500000350000003500010034000000340000A8
:10256000003400010033000000330000003300019C
:102570000032000000320000003200010031000093
:102580000031000000310001003000000030000088
:1025900000300001002F0000002F0000002F00007D
:1025A000002F0001002E0000002E0000002E000170
:1025B000002D0000002D0000002D0000002D000166
:1025C000002C0000002C0000002C0000002C00015A
:1025D000002B0000002B0000002B0000002B00014E
:1025E000002A0000002A0000002A0000002A000142
:1025F0000029000000290000002900000029000037
:102600000029000100280000002800000028000028
:10261000002800000028000100270000002700001B
:10262000002700000027000000270001002600000E
:102630000026000000260000002600000026000101
:1026400000250000002500000025000000250000F6
:1026500000250000002500010024000000240000E7
:1026600000240000002400000024000100230000DA
:1026700000230000002300000023000000230000CE
:1026800000230000002300010022000000220000BF
:1026900000220000002200000022000000220001B1
:1026A00000210000002100000021000000210000A6
:1026B0000021000000210000002100010020000096
:1026C000002000000020000000200000002000008A
:1026D000002000000020000000200001001F00007A
:1026E000001F0000001F0000001F0000001F00006E
:1026F000001F0000001F0001001E0000001E00005F
:10270000001E0000001E00000024F4D43050C38ED0
:1027100020C2A24017828B7011127A910D816CD960
:102720000AA861E108C7586607615143061E4B5D60
:1027300005C145A7041A411104093D9803713931B7
:10274000034036DB0265339102D4305402802E1DE3
:1027500002632CEE01752AC501B028A00110278163
:10276000018F2564012B244B01E0223401AC211F91
:10277000018D200D01801FFC00841EED00971DDFE0
:1027800000B81CD200E61BC600201BBC00641AB2B5
:1027900000B219A8000A19A0006A189900D117916F
:1027A0000040178B00B516840031167E00B31579F2
:1027B000003A157300C7146F0058146A00EE1366D0
:1027C000008813630025135E00C7125B006C12576C
:1027D0000015125400C111510070114F0021114B0E
:1027E00000D61049008D10470046104400021042E8
:1027F00000C00F4000800F3E00420F3C00060F3B20
:1028000000CB0E3800930E37005C0E3500270E34D7
:1028100000F30D3200C10D3100900D3000600D2E1F
:1028200000320D2D00050D2C00D90C2B00AE0C290B
:1028300000850C29005C0C2700350C27000E0C26A7
:1028400000E80B2400C40B2400A00B23007D0B2305
:10285000005A0B2100390B2100180B2000F80A1F29
:1028600000D90A1E00BB0A1E009D0A1D00800A1D19
:1028700000630A1C00470A1B002C0A1B00110A1ADD
:1028800000F7091A00DD091900C4091900AB09197C
:1028900000920917007B091800630917004C0916FC
:1028A0000036091600200916000A091500F508155A
:1028B00000E0081400CC081400B8081400A40814A0
:1028C00000900813007D0812006B081300580812CE
:1028D00000460812003408110023081100120811E4
:1028E0000001081100F0071000E0071000D00710E9
:1028F00000C0071000B0070F00A107100091070EDD
:102900000083070F0074070F0065070E0057070EBE
:102910000049070E003B070D002E070E0020070D93
:102920000013070D0006070D00F9060C00ED060D5B
:1029300000E0060C00D4060C00C8060C00BC060C17
:1029400000B0060C00A4060B0099060C008D060BC7
:102950000082060B0077060B006C060B0061060A6E
:102960000057060B004C060A0042060A0038060A09
:10297000002E060A0024060A001A060A001006099C
:102980000007060A00FD050900F4050900EB05092A
:1029900000E2050900D9050900D0050900C70509AD
:1029A00000BE050900B5050800AD050800A505092C
:1029B000009C050800940508008C050800840508A3
:1029C000007C050800740508006C05070065050813
:1029D000005D050700560508004E0507004705077E
:1029E000004005080038050700310507002A0507E3
:1029F00000230507001C050600160507000F050744
:102A0000000805060002050700FB040600F50407A0
:102A100000EE040600E8040600E2040700DB0406FA
:102A200000D5040600CF040600C9040600C304064E
:102A300000BD040600B7040600B1040500AC04069E
:102A400000A6040600A00405009B040600950405EA
:102A500000900406008A0405008504050080040631
:102A6000007A04050075040500700405006B040578
:102A70000066040500610405005C040500570405B8
:102A800000520405004D04050048040500430405F8
:102A9000003E0404003A0405003504050030040437
:102AA000002C04050027040400230405001E040470
:102AB000001A04040016040500110404000D0404A7
:102AC00000090405000404040000040400FC0304DD
:102AD00000F8030400F4030400F0030400EC030412
:102AE00000E8030400E4030400E0030400DC030442
:102AF00000D8030400D4030400D0030400CC030472
:102B000000C8030300C50303000A4D657368206F06
:102B10006E6C79207061727469616C6C7920706F71
:102B200070756C617465642E0A0024F404D9201B4E
:102B3000C40C5C0E9804C4095F0265077101F405BA
:102B4000F900FB04B30048048700C103690058037F
:102B5000550003034500BE023A00840231005302CF
:102B60002A002902250004022000E4011C00C801FB
:102B70001900AF01170098011400840113007101BE
:102B800010006101100051010E0043010D003601DB
:102B90000B002B010B0020010B00150109000C019B
:102BA000090003010800FB000800F3000800EB0027
:102BB0000700E4000600DE000600D8000600D20090
:102BC0000600CC000500C7000500C2000500BD00DE
:102BD0000400B9000400B5000400B1000400AD0019
:102BE0000400A9000400A5000300A20003009F0048
:102BF00004009B000300980003009500020093006E
:102C00000300900003008D0002008B000300880089
:102C100002008600020084000300810002007F00A1
:102C200002007D0002007B000200790002007700B4
:102C300001007600020074000200720001007100C1
:102C400002006F0002006D0001006C0002006A00CB
:102C500001006900020067000100660001006500D4
:102C600001006400020062000100610001006000D8
:102C700001005F0002005D0001005C0001005B00DC
:102C800001005A00010059000100580001005700DE
:102C900001005600010055000100540001005300DE
:102CA00000005300010052000100510001005000DB
:102CB00001004F0001004E0000004E0001004D00D9
:102CC00001004C0001004B0000004B0001004A00D5
:102CD00001004900010048000000480001004700D1
:102CE00001004600000046000100450000004500CC
:102CF00001004400010043000000430001004200C5
:102D000000004200010041000000410001004000BD
:102D100001003F0000003F0001003E0000003E00B7
:102D200001003D0000003D0001003C0000003C00AF
:102D300000003C0001003B0000003B0001003A00A5
:102D400000003A000100390000003900010038009D
:102D50000000380000003800010037000000370094
:102D6000010036000000360000003600010035008A
:102D70000000350000003500010034000000340080
:102D80000000340001003300000033000000330075
:102D9000010032000000320000003200010031006A
:102DA0000000310000003100010030000000300060
:102DB0000000300001002F0000002F0000002F0055
:102DC00000002F0001002E0000002E0000002E0049
:102DD00001002D0000002D0000002D0000002D003E
:102DE00001002C0000002C0000002C0000002C0032
:102DF00001002B0000002B0000002B0000002B0026
:102E000001002A0000002A0000002A0000002A0019
:102E1000010029000000290000002900000029000D
:102E20000000290001002800000028000000280000
:102E300000002800000028000100270000002700F3
:102E400000002700000027000000270001002600E6
:102E500000002600000026000000260000002600DA
:102E600001002500000025000000250000002500CD
:102E700000002500000025000100240000002400BF
:102E800000002400000024000000240001002300B2
:102E900000002300000023000000230000002300A6
:102EA0000000230000002300010022000000220097
:102EB000000022000000220000002200000022008A
:102EC000010021000000210000002100000021007D
:102ED000000021000000210000002100010020006E
:102EE0000000200000002000000020000000200062
:102EF00000002000000020000000200001001F0052
:102F000000001F0000001F0000001F0000001F0045
:102F100000001F0000001F0001001E0000001E0036
:102F200000001E0000001E00000024F4D43050C336
:102F30008E20C2A24017828B7011127A910D816C83
:102F4000D90AA861E108C7586607615143061E4BBC
:102F50005D05C145A7041A411104093D9803713963
:102F600031034036DB0265339102D4305402802EA7
:102F70001D02632CEE01752AC501B028A00110279F
:102F800081018F2564012B244B01E0223401AC2107
:102F90001F018D200D01801FFC00841EED00971D78
:102FA000DF00B81CD200E61BC600201BBC00641A60
:102FB000B200B219A8000A19A0006A189900D11726
:102FC000910040178B00B516840031167E00B315B2
:102FD00079003A157300C7146F0058146A00EE1395
:102FE00066008813630025135E00C7125B006C1235
:102FF000570015125400C111510070114F002111DA
:103000004B00D61049008D104700461044000210B6
:103010004200C00F4000800F3E00420F3C00060FF0
:103020003B00CB0E3800930E37005C0E3500270EA8
:103030003400F30D3200C10D3100900D3000600DF1
:103040002E00320D2D00050D2C00D90C2B00AE0CDE
:103050002900850C29005C0C2700350C27000E0C7C
:103060002600E80B2400C40B2400A00B23007D0BDA
:1030700023005A0B2100390B2100180B2000F80AFD
:103080001F00D90A1E00BB0A1E009D0A1D00800AEF
:103090001D00630A1C00470A1B002C0A1B00110AB2
:1030A0001A00F7091A00DD091900C4091900AB0953
:1030B0001900920917007B091800630917004C09D1
:1030C000160036091600200916000A091500F50831
:1030D0001500E0081400CC081400B8081400A40877
:1030E0001400900813007D0812006B0813005808A4
:1030F00012004608120034081100230811001208BB
:10310000110001081100F0071000E0071000D007BF
:103110001000C0071000B0070F00A10710009107B2
:103120000E0083070F0074070F0065070E00570796
:103130000E0049070E003B070D002E070E0020076A
:103140000D0013070D0006070D00F9060C00ED0633
:103150000D00E0060C00D4060C00C8060C00BC06EE
:103160000C00B0060C00A4060B0099060C008D069E
:103170000B0082060B0077060B006C060B00610645
:103180000A0057060B004C060A0042060A003806E1
:103190000A002E060A0024060A001A060A00100673
:1031A000090007060A00FD050900F4050900EB0502
:1031B0000900E2050900D9050900D0050900C70585
:1031C0000900BE050900B5050800AD050800A50504
:1031D00009009C050800940508008C05080084057A
:1031E00008007C050800740508006C0507006505EB
:1031F00008005D050700560508004E050700470555
:1032000007004005080038050700310507002A05BA
:103210000700230507001C050600160507000F051B
:1032200007000805060002050700FB040600F50478
:103230000700EE040600E8040600E2040700DB04D1
:103240000600D5040600CF040600C9040600C30426
:103250000600BD040600B7040600B1040500AC0476
:103260000600A6040600A00405009B0406009504C1
:103270000500900406008A0405008504050080040A
:1032800006007A04050075040500700405006B044F
:10329000050066040500610405005C040500570490
:1032A0000500520405004D040500480405004304D0
:1032B00005003E0404003A0405003504050030040E
:1032C00004002C04050027040400230405001E0448
:1032D00004001A04040016040500110404000D047F
:1032E0000400090405000404040000040400FC03B5
:1032F0000400F8030400F4030400F0030400EC03EA
:103300000400E8030400E4030400E0030400DC0319
:103310000400D8030400D4030400D0030400CC0349
:103320000400C8030300C5030300537461727420D2
:103330006F662075626C2E6C696E655F746F5F647A
:10334000657374696E6174696F6E5F6361727465D1
:103350007369616E2829006F7574206F6620626F33
:10336000756E647320696E2075626C2E6C696E6573
:103370005F746F5F64657374696E6174696F6E5FAB
:1033800063617274657369616E28290046494E4114
:103390004C5F4D4F564520696E2075626C2E6C69EE
:1033A0006E655F746F5F64657374696E6174696F75
:1033B0006E5F63617274657369616E28290076655A
:1033C00072746963616C206D6F766520646F6E65E1
:1033D00020696E2075626C2E6C696E655F746F5F1C
:1033E00064657374696E6174696F6E5F6361727432
:1033F000657369616E282900686F72697A6F6E74EF
:10340000616C206D6F766520646F6E6520696E203B
:1034100075626C2E6C696E655F746F5F6465737442
:10342000696E6174696F6E5F6361727465736961FF
:103430006E28290067656E65726963206D6F766519
:1034400020646F6E6520696E2075626C2E6C696EEB
:10345000655F746F5F64657374696E6174696F6EC4
:103460005F63617274657369616E2829004D6F76C0
:10347000696E672E2E2E00687474703A2F2F6D615E
:10348000726C696E66772E6F726700627567666927
:10349000782D312E312E7800687474703A2F2F6D8C
:1034A00061726C696E66772E6F72670068747470F3
:1034B0003A2F2F6D61726C696E66772E6F7267009E
:1034C000687474703A2F2F6D61726C696E66772E16
:1034D0006F726700206275676669782D312E312E14
:1034E00078005A2D4F66667365743A2000417574F2
:1034F0006F20686F6D6500473238004175746F74D6
:10350000656D70005049442D49005049442D4400D8
:10351000416363656C00412D726574726163740070
:10352000412D74726176656C004A756E6374696FC3
:103530006E20446576005873746570732F6D6D004E
:103540005973746570732F6D6D005A737465707361
:103550002F6D6D004573746570732F6D6D00466936
:103560006C2E204469612E005072696E7420667260
:103570006F6D205344005072696E742066726F6DD7
:10358000205344004368616E67652066696C616D15
:10359000656E7400696E206D6F76655F746F2829A3
:1035A00020666565645F76616C756520666F722064
:1035B00058593A004C656176696E6720473236008B
:1035C0004732362048656174696E67204E6F7A7A9B
:1035D0006C652E004732362048656174696E67203D
:1035E0004265642E00446F6E65205072696D696E8D
:1035F0006700557365722D436F6E74726F6C6C65E6
:1036000064205072696D65004669786564204C6578
:103610006E677468205072696D652E004D65736821
:103620002056616C69646174696F6E2053746F70A9
:103630007065642E002C2065793D0029202D3E20E8
:103640002865783D002C2073793D0020436F6E6E15
:10365000656374696E672077697468207665727433
:103660006963616C206C696E65202873783D002C5D
:103670002065793D0029202D3E202865783D002CCD
:103680002073793D0020436F6E6E656374696E67C9
:10369000207769746820686F72697A6F6E74616CE4
:1036A000206C696E65202873783D004C65617669F1
:1036B0006E6720473236003F5370656369666965FF
:1036C0006420582C5920636F6F7264696E61746551
:1036D000206F7574206F6620626F756E64732E0A9A
:1036E000003F28522965706561742076616C7565AC
:1036F000206E6F7420706C61757369626C653B201D
:103700006D757374206265206174206C65617374DB
:1037100020312E0A003F5370656369666965642035
:103720006E6F7A7A6C652074656D70657261747500
:103730007265206E6F7420706C61757369626C6560
:103740002E0A003F53706563696669656420666987
:103750006C616D656E742073697A65206E6F74207C
:10376000706C61757369626C652E0A003F537065F9
:10377000636966696564207072696D65206C656E49
:10378000677468206E6F7420706C61757369626C09
:10379000652E0A003F537065636966696564206E33
:1037A0006F7A7A6C652073697A65206E6F74207009
:1037B0006C61757369626C652E0A003F53706563B6
:1037C00069666965642052657472616374696F6EBD
:1037D000204D756C7469706C696572206E6F742011
:1037E000706C61757369626C652E0A003F52657476
:1037F00072616374696F6E204D756C7469706C6969
:103800006572206D757374206265207370656369DD
:10381000666965642E0A003F537065636966696571
:1038200064206C6179657220686569676874206ED0
:103830006F7420706C61757369626C652E0A003F4D
:1038400053706563696669656420626564207465A8
:103850006D7065726174757265206E6F7420706C26
:1038600061757369626C65202834302D31343043C2
:10387000292E0A0047323620636F6D6D616E642019
:10388000737461727465642E2057616974696E6720
:1038900020666F72206865617465722873292E0A2C
:1038A0000000000000010204040000001C1C0C04C5
:1038B00004040201000000000004081000000000E1
:1038C000002D2D2D2D2D2D007C4D61726C696E7C8F
:1038D000002D2D2D2D2D2D00687474703A2F2F6D15
:1038E00061726C696E66772E6F72670068747470AF
:1038F0003A2F2F6D61726C696E66772E6F7267005A
:103900006275676669782D312E312E780062756791
:103910006669782D312E312E7800002020506C61A0
:103920006E6E657242756666657242797465733A49
:1039300020002046726565204D656D6F72793A20D2
:1039400000436F6D70696C65643A2041707220327B
:103950003920323031390A00207C20417574686F7B
:10396000723A20286E6F6E652C2064656661756CF6
:103970007420636F6E666967290A00323031382D12
:1039800030372D333100204C6173742055706461E1
:103990007465643A20006275676669782D312E314E
:1039A0002E780A004D61726C696E0020536F667448
:1039B000776172652052657365740A0020576174DF
:1039C0006368646F672052657365740A00204272F1
:1039D0006F776E206F75742052657365740A0020CE
:1039E00045787465726E616C2052657365740A0067
:1039F000506F77657255700A0073746172740A00B3
:103A00006175746F25692E67006572726F72207719
:103A1000726974696E6720746F2066696C650A004C
:103A2000456E6473746F70732025632025632025B1
:103A30006320256300205A3A0020593A0020583A62
:103A400000656E6473746F7073206869743A200047
:103A5000446F6E6520736176696E672066696C6578
:103A60002E0A004D32390000002100240027002AD0
:103A7000002D003000330001010000040107010A9D
:103A80000100000A0B02090C0D0E080703040100D7
:103A90000000000000000000000000000000000026
:103AA00000000000000000000000000000121110E3
:103AB0000000000000000000000000000000000006
:103AC000000000000000004368616E6765206669C1
:103AD0006C616D656E7400556E6C6F616420666913
:103AE0006C616D656E74004C6F61642066696C6119
:103AF0006D656E7400507265686561742041425353
:103B0000005072656865617420504C4100436861E3
:103B10006E67652066696C616D656E7400436172E5
:103B2000642072656D6F766564004361726420691C
:103B30006E7365727465640002486F6D696E67200C
:103B400058595A004732392050342058257320598B
:103B500025732052256900202D2D2D2D2D000000CC
:103B6000F041AAAA6242AAAAA6420000DC42AAAA7E
:103B700008435555234300003E43AAAA58435555D0
:103B800073430000874355559443AAAAA1430000FC
:103B9000AF435555BC43AAAAC9430000D743000010
:103BA000F041AAAA6242AAAAA6420000DC42AAAA3E
:103BB00008435555234300003E43AAAA5843555590
:103BC00073430000874355559443AAAAA1430000BC
:103BD000AF435555BC43AAAAC9430000D743473257
:103BE00038004F7574707574204D657368204D6191
:103BF00070004F6666205072696E74657220426173
:103C0000636B75700047323920532D31004F757446
:103C100070757420666F7220435356004732392006
:103C20005431004F757470757420666F7220486F40
:103C300073740047323920543000556E69666965E7
:103C40006420426564204C6576656C696E67004D42
:103C5000657368204C6576656C696E6700456469BC
:103C600074204D6573680056616C696461746520E9
:103C70004D657368004D616E75616C6C792042759D
:103C8000696C64204D6573680047323920493939C1
:103C9000390A4732392050322042205430004275D0
:103CA000696C64204D65736800556E69666965646A
:103CB00020426564204C6576656C696E670037202C
:103CC0005361766520426564204D65736800362037
:103CD00046696E652054756E6520416C6C004732F4
:103CE000392050342052393939205400352056615A
:103CF0006C6964617465204D6573680034204669A1
:103D00006E652054756E6520416C6C004732392019
:103D100050342052393939205400332056616C69AF
:103D200064617465204D657368003220536D617263
:103D3000742046696C6C2D696E004732392050330F
:103D40002054300031204275696C6420436F6C64EC
:103D5000204D657368004732380A473239205031A8
:103D600000556E696669656420426564204C65761D
:103D7000656C696E670046616465204865696768BF
:103D8000740046616465204865696768740046612F
:103D9000646520486569676874004F757470757450
:103DA0002055424C20496E666F004732392057003B
:103DB00055424C20546F6F6C73004F75747075745E
:103DC000204D657368204D6170004D657368205308
:103DD000746F72616765004D65736820456469742E
:103DE00000537465702D42792D53746570205542CF
:103DF0004C00446561637469766174652055424C7A
:103E0000004732392044004163746976617465204B
:103E100055424C0047323920410050726570617242
:103E20006500473239205031004D3130392053255B
:103E300069004D313930205325690047323800423E
:103E400075696C6420437573746F6D204D6573687C
:103E5000004265642054656D7000426564205465BD
:103E60006D70004265642054656D7000486F746524
:103E70006E642054656D7000486F74656E642054E4
:103E8000656D7000486F74656E642054656D7000D8
:103E90004275696C64204D657368002E2569004782
:103EA00032392050362043202D00496E666F207332
:103EB000637265656E0048656967687420416D6F5F
:103EC000756E740048656967687420416D6F756E22
:103ED000740048656967687420416D6F756E740081
:103EE00045646974204D65736800496E666F207380
:103EF000637265656E0041646A757374204D657305
:103F000068204865696768740046696E6520547565
:103F10006E6520436C6F73657374004732392050AF
:103F20003420540046696E652054756E6520416CDE
:103F30006C0047323920503420523939392054002E
:103F400055424C20546F6F6C730047323800473233
:103F50003620432042256920482569205000496EBB
:103F6000666F2073637265656E0056616C6964618B
:103F7000746520437573746F6D204D6573680056CA
:103F8000616C696461746520414253204D657368BA
:103F9000004732380A473236204320423130302041
:103FA0004832343020500056616C69646174652079
:103FB000504C41204D657368004732380A4732360D
:103FC00020432042353520483230352050005542BC
:103FD0004C20546F6F6C7300473239204A256900BA
:103FE0004C6576656C204D65736800536964652087
:103FF000506F696E7473005369646520506F696E09
:104000007473005369646520506F696E7473005552
:10401000424C20546F6F6C7300496E666F2073635F
:104020007265656E0047726964204D657368204C47
:104030006576656C696E6700332D506F696E74200C
:104040004C6576656C696E6700473239204A3000EE
:1040500055424C20546F6F6C7300473239205033F7
:10406000205220432E256900496E666F20736372CB
:1040700065656E004D616E75616C2046696C6C2DD6
:10408000696E0047323920503220422054300053AC
:104090006D6172742046696C6C2D696E004732390F
:1040A0002050332054300046696C6C2D696E2041DD
:1040B0006D6F756E740046696C6C2D696E20416D74
:1040C0006F756E740046696C6C2D696E20416D6F62
:1040D000756E74004275696C64204D657368004D9F
:1040E00065736820696E76616C6964617465642EBD
:1040F0000A00496E666F2073637265656E00496ED3
:1041000076616C696461746520436C6F7365737468
:1041100000473239204900496E76616C69646174E8
:104120006520416C6C00436F6E74696E756520424A
:104130006564204D65736800473239205031204353
:104140000046696C6C2D696E204D65736800427580
:10415000696C6420436F6C64204D6573680047325E
:10416000380A473239205031004275696C64204367
:104170007573746F6D204D657368004275696C646A
:1041800020414253204D657368004732380A4D3153
:10419000393020533130300A4D31303920533234E8
:1041A000300A4732392050310A4D313034205330F3
:1041B0000A4D313430205330004275696C64205010
:1041C0004C41204D657368004732380A4D31393013
:1041D000205335350A4D31303920533230350A47B6
:1041E00032392050310A4D3130342053300A4D31AC
:1041F00034302053300055424C20546F6F6C7300A4
:104200004D313137204D6573682025692073617603
:1042100065640047323920532569004D313137201C
:104220004D657368202569206C6F61646564004783
:104230003239204C2569005361766520426564203F
:104240004D657368004C6F616420426564204D6564
:104250007368004D656D6F727920536C6F74004DFB
:10426000656D6F727920536C6F74004D656D6F7260
:104270007920536C6F74004E6F2073746F72616796
:104280006500556E696669656420426564204C6509
:1042900076656C696E670000002000230026002907
:1042A000002C002F0032000001000003010601096C
:1042B0000100002200250028002B002E00310034D0
:1042C0000002010000050108010B010505050507B5
:1042D0000508080808020202020A0A080804040481
:1042E00004010101010101010103030303030303AD
:1042F00003040707070C0C0C0C0C0C0C0C0202023C
:104300000206060606060606060B0B0B0B0B0B0B2E
:104310000B010210202008081020401020408002CD
:1043200001020108040201010204081020408080FB
:10433000402010080402018004020180402010087F
:104340000402010804020101020408102040800157
:10435000020408102040804D3234004D32332025B5
:104360007300556E6B6E6F776E20636F6D6D616E4F
:10437000643A202200496E736572742066696C612C
:104380006D656E7420616E64207072657373206257
:104390007574746F6E20286F72204D313038290A81
:1043A0000057726974696E6720746F2066696C6566
:1043B0003A20006F70656E206661696C65642C2020
:1043C00046696C653A20006F70656E206661696CA5
:1043D00065642C2046696C653A200046696C65204E
:1043E00073656C65637465640A002053697A653A85
:1043F000200046696C65206F70656E65643A200028
:104400002066696C653A2000646F696E67006672A9
:10441000657368004E6F772000454E442053554227
:10442000524F5554494E450A002220706F730022A6
:1044300020706172656E743A2200535542524F5596
:1044400054494E452043414C4C2074617267657459
:104450003A22004B494C4C45442E20007472796935
:104460006E6720746F2063616C6C207375622D67BA
:10447000636F64652066696C657320776974682072
:10448000746F6F206D616E79206C6576656C732E2C
:10449000204D4158206C6576656C2069733A004563
:1044A00072726F723A006F70656E206661696C653A
:1044B000642C2046696C653A200043616E6E6F740F
:1044C000206F70656E207375626469722000656389
:1044D000686F3A00453120544845524D414C2052B6
:1044E000554E415741590042454420544845524D8C
:1044F000414C2052554E4157415900546865726DE8
:10450000616C2052756E6177617900001C1F11117A
:104510001F00000006191803130C00040E1F041CD2
:10452000000000000E1315110E00001C10181705D6
:10453000060500040A0A0A0A11110E0C12120C00D8
:10454000000000001F1511151F00005072656865FE
:1045500061742041425320636F6E6600507265683B
:1045600065617420504C4120636F6E660050494471
:104570002D43005049442D43005049442D430050E1
:1045800049442D44005049442D44005049442D498C
:10459000005049442D49005049442D500050494491
:1045A0002D50005049442D50002002204661637474
:1045B000002002204661637400200220466163747B
:1045C000002002204D6178002002204D61780020FB
:1045D00002204D6178002002204D696E00200220EB
:1045E0004D696E002002204D696E004F6666004FD7
:1045F0006E20004175746F74656D700046616E20A9
:1046000073706565640046616E2073706565640053
:1046100046616E20737065656400426564004265A2
:104620006400426564004E6F7A7A6C65004E6F7A62
:104630007A6C65004E6F7A7A6C6500436F6E7472A7
:104640006F6C0053746F72652073657474696E6764
:1046500073004265640042656400426564004E6F09
:104660007A7A6C65004E6F7A7A6C65004E6F7A7A52
:104670006C650046616E2073706565640046616E0E
:104680002073706565640046616E207370656564B3
:104690000054656D70657261747572650056547270
:1046A0006176206D696E005654726176206D696E78
:1046B000005654726176206D696E00566D696E0009
:1046C000566D696E00566D696E00566D61782045B5
:1046D00000566D6178204500566D61782045005682
:1046E0006D6178205A00566D6178205A00566D61D0
:1046F00078205A00566D6178205900566D617820F7
:104700005900566D6178205900566D617820580027
:10471000566D6178205800566D61782058004D6FB5
:1047200074696F6E00416D6178204500416D61785C
:10473000204500416D6178204500416D6178205A27
:1047400000416D6178205A00416D6178205A004126
:104750006D6178205900416D6178205900416D618B
:1047600078205900416D6178205800416D617820B2
:104770005800416D6178205800412D747261766552
:104780006C00412D74726176656C00412D72657408
:104790007261637400412D726574726163740041CB
:1047A0006363656C00416363656C004D6F74696F92
:1047B0006E00496E73756666696369656E74206420
:1047C0006174610A00646F6E650A004578747261F5
:1047D000706F6C6174696E67206D6573682E2E2E24
:1047E0000025753A2530327500253032753A25306E
:1047F0003275002D2D2D0053440020202020202034
:104800000020202020000900000A010008000A0101
:10481000000A090000000A0008002066726F6D207F
:1048200063757272656E74206D6573682E0A00532D
:1048300075627472616374696E67206D6573682058
:10484000696E20736C6F7420003F557365203020B3
:10485000746F20003F496E76616C69642073746FD9
:104860007261676520736C6F742E0A003F55736523
:10487000203020746F20003F53746F726167652091
:10488000736C6F7420232072657175697265642E74
:104890000A003F454550524F4D2073746F72616757
:1048A00065206E6F7420617661696C61626C652E43
:1048B0000A004D6573682045646974696E6720530A
:1048C000746F7070656400446F6E65204564697430
:1048D000696E67204D6573680A00446F6E652045F8
:1048E000646974696E67204D6573680046696E651A
:1048F0002054756E696E67204D6573680028582CCA
:104900005929206F757473696465207072696E74BB
:1049100061626C65207261646975732E0A004F666E
:1049200066736574206F7574206F6620626F756E94
:1049300064732E20283020746F2031306D6D290A69
:104940000A00154810480B4806485D0A0062656475
:1049500020706C616E65206E6F726D616C203D2001
:104960005B00436F756C64206E6F7420636F6D70B5
:104970006C657465204C53462100436F7272656309
:104980007465645F5A3D003F4572726F72207072A9
:104990006F62696E6720706F696E742E20204162AD
:1049A0006F7274696E67206F7065726174696F6E83
:1049B0002E0A00436F727265637465645F5A3D002E
:1049C000436F727265637465645F5A3D00436F7232
:1049D0007265637465645F5A3D005374616E64610F
:1049E000726420446576696174696F6E3A20004D87
:1049F00065616E204D657368204865696768743A23
:104A0000200023206F662073616D706C65733A20FF
:104A1000000A4D657368206F6E6C79207061727446
:104A200069616C6C7920706F70756C617465642E4F
:104A30000A0A0020616E642074616B652061206D3C
:104A40006561737572656D656E742E0A006D6D20FB
:104A5000746869636B2E0A00427573696E657373BF
:104A60002043617264206973200052656D6F766522
:104A70002026206D65617375726520626564005241
:104A8000656D6F7665207368696D00506C61636554
:104A9000207368696D2026206D65617375726500ED
:104AA000506C616365207368696D20756E64657212
:104AB000206E6F7A7A6C65004D65736820506F695F
:104AC0006E74204D656173757265642061743A205F
:104AD000000A4D657368206F6E6C79207061727486
:104AE00069616C6C7920706F70756C617465642E8F
:104AF0000A004D65617375726500506C61636520D5
:104B00007368696D2026206D656173757265004D4F
:104B10006F76696E6720746F206E65787400496ED9
:104B200076616C6964206D617020747970652E0AFD
:104B30000A003F28462961646520686569676874D2
:104B400020666F7220426564204C6576656C204358
:104B50006F7272656374696F6E206E6F7420706C13
:104B600061757369626C652E0A0A003F43616E27A6
:104B70007420616374697661746520616E64206479
:104B80006561637469766174652061742074686519
:104B90002073616D652074696D652E0A0A00426F8D
:104BA0007468205820262059206C6F636174696FE7
:104BB0006E73206D75737420626520737065636910
:104BC000666965642E0A0A003F496E76616C696405
:104BD00020677269642073697A6520284A292073E6
:104BE00070656369666965642028322D39292E0A4B
:104BF0000A003F285029686173652076616C7565ED
:104C000020696E76616C69642028302D36292E0A61
:104C10000A003F2856296572626F7365206C6576BD
:104C2000656C20697320696D706C61757369626C65
:104C3000652028302D34292E0A0A003F2852296584
:104C40007065746974696F6E20636F756E74206926
:104C50006E76616C69642028312B292E0A0A004483
:104C60006F696E6720473239002073616E6974790D
:104C700020636865636B73207061737365642E0ACB
:104C800000202073746174653A004B696C6C20706D
:104C9000696E206F6E203A00202000592D417869FE
:104CA00073204D65736820506F696E747320617452
:104CB0003A2000202000582D41786973204D6573FB
:104CC0006820506F696E74732061743A20004D45FE
:104CD00053485F595F444953542020004D45534881
:104CE0005F585F44495354202000475249445F4D68
:104CF00041585F504F494E54535F5920200047524E
:104D000049445F4D41585F504F494E54535F5820BE
:104D100020004D4553485F4D41585F5920203330A6
:104D200030202D20283330293D004D4553485F4D1C
:104D300041585F582020333030202D20283330292F
:104D40003D004D4553485F4D494E5F59202033305B
:104D50003D004D4553485F4D494E5F58202033304C
:104D60003D007A70726F62655F7A6F666673657414
:104D70003A2000706C616E6E65722E7A5F666164B7
:104D8000655F686569676874203A200055424C2069
:104D90006F626A65637420636F756E743A200020D9
:104DA0004C6F616465642E004D65736820004E6F22
:104DB000204D657368204C6F616465642E003A2055
:104DC00000454550524F4D2044756D703A0A004AD7
:104DD000756E6374696F6E20446576004A756E6304
:104DE00074696F6E20446576004D6F74696F6E0054
:104DF0004573746570732F6D6D00457374657073C2
:104E00002F6D6D005A73746570732F6D6D005A733A
:104E1000746570732F6D6D005973746570732F6DA9
:104E20006D005973746570732F6D6D0058737465E0
:104E300070732F6D6D005873746570732F6D6D00F6
:104E40004D6F74696F6E0053746570732F6D6D00D4
:104E50004A65726B00416363656C65726174696F6A
:104E60006E0056656C6F636974790050726F62658D
:104E7000205A204F666673657400436F6E74726FBC
:104E80006C004C6F6164206D6D004C6F6164206D2F
:104E90006D004C6F6164206D6D00556E6C6F6164C8
:104EA000206D6D00556E6C6F6164206D6D00556EE8
:104EB0006C6F6164206D6D0046696C2E20446961E1
:104EC0002E0046696C2E204469612E004F666600F4
:104ED0004F6E20004520696E206D6D3300452069BE
:104EE0006E206D6D3300436F6E74726F6C004361A2
:104EF0006E6E6F7420656E7465722073756264697E
:104F0000723A2000052E2E004D61696E004D37303B
:104F10003220542564004D36303020423020542554
:104F200064004D373032203B2564004D373031204E
:104F300054256400556E6C6F61642066696C616D08
:104F4000656E7400556E6C6F61642066696C616D8E
:104F5000656E74004D373032004D373031004C6F84
:104F600061642066696C616D656E74004D36303029
:104F7000204230004368616E67652066696C616D30
:104F8000656E740050726570617265005052494ED2
:104F9000542050415553454400554E4C4F414420F8
:104FA00046494C414D454E54004C4F4144204649E2
:104FB0004C414D454E54005075726765206D6F72BF
:104FC0006500436F6E74696E756500524553554DAB
:104FD00045204F5054494F4E533A0020204E6F7A8F
:104FE0007A6C653A20006368616E6765006F6620C1
:104FF0007468652066696C616D656E7400576169DF
:105000007420666F722073746172740020204E6F7A
:105010007A7A6C653A200066696C616D656E742001
:10502000756E6C6F6164005761697420666F720001
:1050300020204E6F7A7A6C653A2000506C6561735F
:105040006520776169742E2E2E0048656174696E43
:1050500067206E6F7A7A6C650020204E6F7A7A6CCA
:10506000653A200068656174206E6F7A7A6C652EEF
:1050700000507265737320627574746F6E20746F64
:105080000020204E6F7A7A6C653A2000746F20639E
:105090006F6E74696E75652E2E2E00616E642070C1
:1050A0007265737320627574746F6E00496E7365F8
:1050B00072742066696C616D656E740020204E6F9D
:1050C0007A7A6C653A200066696C616D656E742051
:1050D0006C6F6164005761697420666F72002020F4
:1050E0004E6F7A7A6C653A200066696C616D656E08
:1050F00074207075726765005761697420666F72FD
:1051000000746F20726573756D6500576169742056
:10511000666F72207072696E7400454550524F4D33
:10512000206461746173697A65206572726F722E92
:105130000A00290A002062797465733B2063726358
:10514000200053657474696E67732053746F7265C1
:105150006420280055424C2053797374656D207289
:105160006573657428290A00206C6F61646564208A
:1051700066726F6D2073746F726167652E0A004DE1
:1051800065736820002E0A003F43616E2774206516
:105190006E61626C65200020696E697469616C697A
:1051A0007A65642E0A0A00290A0020627974657300
:1051B0003B2063726320002073746F7265642073F8
:1051C000657474696E67732072657472696576655B
:1051D00064202800202863616C63756C61746564C9
:1051E00029210A0020213D2000454550524F4D20E5
:1051F000435243206D69736D61746368202D2028CC
:1052000073746F7265642920002053697A653A20AF
:1052100000496E6465783A2000204D61726C696EB9
:105220003D563535290A0028454550524F4D3D0021
:10523000454550524F4D2076657273696F6E206DF3
:1052400069736D6174636820004D657368207361D4
:1052500076656420696E20736C6F74200020736C17
:105260006F743D00206D65736865735F656E643DA6
:10527000004532454E443D004D657368206C6F61BA
:105280006465642066726F6D20736C6F74200048D3
:10529000617264636F6465642044656661756C74F3
:1052A0002053657474696E6773204C6F6164656424
:1052B0000A00282300002823000005000000102712
:1052C00000000000FA430000FA430000C040000064
:1052D000A0410000A0420000A0420000A0456626B8
:1052E000CC4320204D3930360020204D3931330059
:1052F0003A0A0020286D6D290020204D36303320D9
:10530000002055004C0046696C616D656E74206C20
:105310006F61642F756E6C6F6164206C656E67746D
:1053200068733A0A0020590020493100205900488A
:105330007962726964205468726573686F6C643A4C
:105340000A0020590020493100205900537465702B
:105350007065722064726976657220637572726519
:105360006E743A0A0020204D383531205A005A2DEB
:1053700050726F6265204F6666736574002044004A
:1053800020490020204D333034205000204C002094
:10539000430020440020490020204D33303120506C
:1053A000005049442073657474696E67733A0A004B
:1053B00020460020420020480020204D3134352076
:1053C00053004D6174657269616C20686561747524
:1053D0007020706172616D65746572733A0A0020A5
:1053E0006D65736865732E0A0A00454550524F4D2E
:1053F0002063616E20686F6C6420000A41637469E9
:105400007665204D65736820536C6F743A200020D8
:105410005A0020204D3432302053003A0A00205ADE
:105420000020590020204D323036205800486F6D42
:1054300065206F66667365743A0A00204A0020543E
:105440000020530020204D323035205100204A3CAE
:105450006A756E635F6465763E00416476616E6373
:1054600065643A20513C6D696E5F7365676D656E6A
:10547000745F74696D655F75733E20533C6D696E32
:105480005F66656564726174653E20543C6D696E4B
:105490005F74726176656C5F666565647261746580
:1054A0003E0020540020520020204D323034205045
:1054B00000416363656C65726174696F6E20287565
:1054C0006E6974732F7332293A20503C7072696E82
:1054D000745F616363656C3E20523C7265747261F7
:1054E00063745F616363656C3E20543C74726176E3
:1054F000656C5F616363656C3E0A00204500205A5D
:105500000020590020204D3230312058004D617864
:10551000696D756D20416363656C65726174696F57
:105520006E2028756E6974732F7332293A0A002031
:105530004500205A0020590020204D323033205899
:10554000004D6178696D756D206665656472617482
:1055500065732028756E6974732F73293A0A0020C9
:105560004500205A0020590020204D393220580093
:1055700053746570732070657220756E69743A0A91
:105580000020204D3230302044300A0020204D329F
:1055900030302044002044697361626C65640A0005
:1055A00046696C616D656E742073657474696E67AD
:1055B000733A0020204D3134392043203B20556E72
:1055C00069747320696E2043656C736975730A0092
:1055D0002020473231202020203B005452494747A9
:1055E00045524544006F70656E003A200066696C54
:1055F000616D656E74007A5F6D696E00795F6D69CB
:105600006E00785F6D696E005265706F7274696EBE
:105610006720656E6473746F702073746174757342
:105620000A004D343238004D3830005377697463C6
:105630006820706F776572206F6666004D383100A4
:10564000507265686561742041425300507265680C
:1056500065617420504C4100436F6F6C646F776ECE
:105660000053776974636820706F776572206F6E7E
:10567000004368616E67652066696C616D656E7474
:105680000044697361626C65207374657070657243
:1056900073004D38340053657420686F6D65206F5A
:1056A00066667365747300556E6966696564204249
:1056B0006564204C6576656C696E67004175746F32
:1056C00020686F6D6500473238004D6F7665206148
:1056D000786973004D61696E004D6F7665205800E2
:1056E0004D6F76652059004D6F7665205A004578DC
:1056F000747275646572004D6F766520302E316D61
:105700006D004D6F766520316D6D004D6F766520B3
:1057100031306D6D004D6F7665206178697300459D
:1057200078747275646572004D6F7665205A004D0D
:105730006F76652059004D6F766520580045787466
:105740007275646572004D6F7665205A004D6F76F4
:10575000652059004D6F7665205800507265706164
:10576000726500496E697469616C697A65204545A6
:1057700050524F4D00436F6E74726F6C00526573E0
:10578000746F7265206661696C7361666500496E4D
:10579000697469616C697A6520454550524F4D00C6
:1057A0004C6F61642073657474696E677300537421
:1057B0006F72652073657474696E67730046696CF7
:1057C000616D656E74004D6F74696F6E0054656D28
:1057D0007065726174757265004D61696E0025694E
:1057E000730025696D202569730025696820256986
:1057F0006D20256973002569642025696820256965
:105800006D20256973002569792025696420256943
:10581000682025696D20256973004B494C4C45442F
:105820002E200053544F505045442E200050726992
:105830006E7465722073746F707065642064756532
:1058400020746F206572726F72732E204669782003
:10585000746865206572726F7220616E6420757362
:1058600065204D39393920746F2072657374617207
:10587000742E202854656D70657261747572652090
:1058800069732072657365742E2053657420697482
:105890002061667465722072657374617274696EDA
:1058A00067290A004E6F20436865636B73756D202E
:1058B00077697468206C696E65206E756D626572BB
:1058C0002C204C617374204C696E653A20004E6F39
:1058D00020436865636B73756D2077697468206C0D
:1058E000696E65206E756D6265722C204C617374F3
:1058F000204C696E653A2000636865636B73756D53
:10590000206D69736D617463682C204C6173742021
:105910004C696E653A20004C696E65204E756D626B
:105920006572206973206E6F74204C617374204C13
:10593000696E65204E756D6265722B312C204C614D
:105940007374204C696E653A20004D313130004D42
:1059500033310053442072656164206572726F7246
:105960000A00446F6E65207072696E74696E6720FC
:1059700066696C650A004F766572636C6F6E6520B0
:105980003335352D3131392D3139303432382052DB
:10599000656164792E005072696E74696E672E2E8F
:1059A0002E005072696E7420706175736564004DCD
:1059B000313235004D3234005072696E74206162AC
:1059C0006F72746564005072696E742066726F6DD8
:1059D0002053440053746F70207072696E740052CB
:1059E0006573756D65207072696E74004E6F20531B
:1059F0004420636172640050617573652070726940
:105A00006E7400436F6E74726F6C005072657061DB
:105A100072650054756E6500496E666F207363721F
:105A200065656E004261627973746570205800424A
:105A30006162797374657020590050726F626520DD
:105A40005A204F6666736574004D6573682045641F
:105A500069746F72004368616E67652066696C6186
:105A60006D656E740050726F6265205A204F6666D5
:105A700073657400426162797374657020590042E5
:105A800061627973746570205800466C6F770046C8
:105A90006C6F7700466C6F770046616E207370659F
:105AA00065640046616E2073706565640046616ED2
:105AB000207370656564004265640042656400425D
:105AC0006564004E6F7A7A6C65004E6F7A7A6C6509
:105AD000004E6F7A7A6C650046616465204865699E
